:100000000C942A000C943F000C943F000C943F0089
:100010000C943F000C943F000C943F000C943F0064
:100020000C943F000C943F000C943F000C943F0054
:100030000C943F000C943F000C943F000C943F0044
:100040000C943F000C943F000C943F000C943F0034
:100050000C943F0011241FBECFE5D8E0DEBFCDBF1A
:1000600011E0A0E6B0E0E4E2FEE202C005900D92ED
:10007000A839B107D9F70E946F150C9410170C948A
:100080000000EF92FF920F931F937B018C0120E001
:1000900030E040E05FE40E94ED0388238CF0C8016B
:1000A000B70120E030E040E05FE40E94B9010E9427
:1000B0004D049B01AC01205030404040504806C0E8
:1000C000C801B7010E944D049B01AC01B901CA01EE
:1000D0001F910F91FF90EF900895A0E0B0E0E3E74B
:1000E000F0E00C94D916DC012B01FA019C919230BE
:1000F00008F439C1EB018881823008F433C19430AF
:1001000069F4843009F02FC111969C91119789816F
:10011000981709F428C1A0E9B0E025C1843009F49A
:1001200021C18230A9F4923009F01DC19A01AD01BC
:1001300088E0EA010990AE01E90109929E0181502F
:10014000C1F7E201898111969C918923818308C1BD
:10015000923009F407C112962D903C901397EB0151
:100160008A819B811496AD90BD90CD90DC901797BD
:10017000EC80FD800E811F819101281B390BB90194
:1001800037FF04C066277727621B730B6032710547
:100190000CF061C0121613066CF537014801062EEB
:1001A00004C096948794779467940A94D2F721E0D8
:1001B00030E040E050E004C0220F331F441F551FC1
:1001C0006A95D2F721503040404050402E213F21C7
:1001D00040235123211531054105510521F021E02E
:1001E00030E040E050E079018A01E628F72808294C
:1001F00019293CC0232BD1F1260E371E35014601AB
:10020000062E04C096948794779467940A94D2F744
:1002100021E030E040E050E004C0220F331F441FD3
:10022000551F6A95D2F721503040404050402A2156
:100230003B214C215D21211531054105510521F05E
:1002400021E030E040E050E059016A01A628B728DB
:10025000C828D9280BC0821593052CF01C01AA24AC
:10026000BB24650103C0EE24FF24870111969C91F5
:10027000D20111968C91981709F445C0992339F051
:10028000A80197012A193B094C095D0906C0A6017E
:1002900095012E193F09400B510B57FD08C01182E3
:1002A0003382228224833583468357831DC081E0B5
:1002B00081833382228288279927DC01821B930B5A
:1002C000A40BB50B84839583A683B7830DC0220F3F
:1002D000331F441F551F24833583468357838281F0
:1002E000938101979383828324813581468157814D
:1002F000DA01C9010197A109B1098F5F9F4FAF4F83
:10030000BF4328F30BC0918333822282EA0CFB1C8B
:100310000C1D1D1DE482F5820683178383E0808314
:10032000248135814681578157FF1AC0C901AA2708
:1003300097FDA095BA2F81709070A070B0705695FF
:10034000479537952795822B932BA42BB52B848328
:100350009583A683B7838281938101969383828359
:10036000DF0101C0D201CD01CDB7DEB7E2E10C94CF
:10037000F516A0E2B0E0EFEBF1E00C94E51669832E
:100380007A838B839C832D833E834F835887E9E058
:10039000EE2EF12CEC0EFD1ECE010196B7010E944F
:1003A0003E068E010F5E1F4FCE010596B8010E94DA
:1003B0003E068A8991E089278A8BC701B801AE0180
:1003C000475E5F4F0E946D000E946905A096E6E0BF
:1003D0000C940117A0E2B0E0E0EFF1E00C94E51618
:1003E00069837A838B839C832D833E834F835887D5
:1003F000F9E0EF2EF12CEC0EFD1ECE010196B701B7
:100400000E943E068E010F5E1F4FCE010596B80179
:100410000E943E06C701B801AE01475E5F4F0E94D1
:100420006D000E946905A096E6E00C940117A0E219
:10043000B0E0EDE1F2E00C94D91669837A838B8306
:100440009C832D833E834F835887CE010196BE0146
:10045000675F7F4F0E943E06CE010596BE016F5E2C
:100460007F4F0E943E069985923088F089898230BC
:10047000C8F0943019F4823051F404C0843029F467
:10048000923081F480E990E0C6C0923049F420E0D7
:100490009A858A89981321E02A87CE010996BBC0E4
:1004A000823049F420E09A858A89981321E02A8BCA
:1004B000CE014196B0C02D843E844F8458886D880B
:1004C0007E888F88988CEE24FF248701AA24BB2481
:1004D000650140E050E060E070E0E0E0F0E0C10184
:1004E00081709070892BE9F0E60CF71C081D191D2E
:1004F0009A01AB012A0D3B1D4C1D5D1D80E090E073
:10050000A0E0B0E0E614F7040805190520F481E046
:1005100090E0A0E0B0E0BA01A901480F591F6A1F9E
:100520007B1FAA0CBB1CCC1CDD1C97FE08C081E005
:1005300090E0A0E0B0E0A82AB92ACA2ADB2A3196C6
:10054000E032F10549F0660C771C881C991C569422
:10055000479437942794C3CFFA85EA892B893C893D
:100560008B859C85280F391F2E5F3F4F17C0CA010E
:1005700081709070892B61F016950795F794E79438
:1005800080E090E0A0E0B0E8E82AF92A0A2B1B2BD3
:1005900076956795579547952F5F3F4F77FDE7CF46
:1005A0000CC0440F551F661F771F17FD4160EE0CEE
:1005B000FF1C001F111F21503040403090E05907B0
:1005C00090E0690790E4790760F32B8F3C8FDB01A3
:1005D000CA018F779070A070B07080349105A1052A
:1005E000B10561F447FD0AC0E114F10401051105EC
:1005F00029F0405C5F4F6F4F7F4F40781A8EFE1797
:1006000011F081E08A8F4D8F5E8F6F8F78A383E02A
:10061000898FCE0149960E946905A096E2E10C946B
:10062000F516A8E1B0E0E7E1F3E00C94E116698388
:100630007A838B839C832D833E834F835887B9E0D5
:10064000EB2EF12CEC0EFD1ECE010196B7010E949F
:100650003E068E010F5E1F4FCE010596B8010E9427
:100660003E062985223008F47EC03989323010F4E4
:10067000B8017CC08A859A8989278A87243011F03D
:10068000223031F4231709F06EC060E970E06EC0CB
:10069000343039F41D861E861F86188A1C861B86F8
:1006A00004C0323021F484E08987B7015FC02B8514
:1006B0003C858B899C89281B390B3C872B87ED84D3
:1006C000FE840F851889AD88BE88CF88D88CEA143F
:1006D000FB040C051D0540F4EE0CFF1C001F111F50
:1006E000215030403C872B8720E030E040E050E054
:1006F00080E090E0A0E0B0E460E070E0EA14FB0489
:100700000C051D0540F0282B392B4A2B5B2BEA18D2
:10071000FB080C091D09B695A79597958795EE0CD2
:10072000FF1C001F111F6F5F7F4F6F31710531F785
:10073000DA01C9018F779070A070B0708034910594
:10074000A105B10561F427FD0AC0E114F10401051A
:10075000110529F0205C3F4F4F4F5F4F20782D87C8
:100760003E874F87588BBE01675F7F4FCB010E944A
:1007700069056896EAE00C94FD16A8E1B0E0E3ECA8
:10078000F3E00C94E51669837A838B839C832D8335
:100790003E834F83588789E0E82EF12CEC0EFD1E36
:1007A000CE010196B7010E943E068E010F5E1F4FDB
:1007B000CE010596B8010E943E068985823040F040
:1007C0008989823028F0C701B8010E94B60601C0AD
:1007D0008FEF6896E6E00C940117A8E1B0E0E3EF34
:1007E000F3E00C94E51669837A838B839C832D83D5
:1007F0003E834F83588789E0E82EF12CEC0EFD1ED6
:10080000CE010196B7010E943E068E010F5E1F4F7A
:10081000CE010596B8010E943E068985823040F0DF
:100820008989823028F0C701B8010E94B60601C04C
:100830008FEF6896E6E00C940117A8E1B0E0E3E2E0
:10084000F4E00C94E51669837A838B839C832D8373
:100850003E834F83588789E0E82EF12CEC0EFD1E75
:10086000CE010196B7010E943E068E010F5E1F4F1A
:10087000CE010596B8010E943E068985823040F07F
:100880008989823028F0C701B8010E94B60601C0EC
:1008900081E06896E6E00C940117ACE0B0E0E3E597
:1008A000F4E00C94E91669837A838B839C83CE01F0
:1008B0000196BE016B5F7F4F0E943E068D818230A4
:1008C00061F1823050F1843021F48E81882351F11E
:1008D0002EC02F81388537FD20C06E812F31310524
:1008E0001CF06623F9F023C08EE190E0821B930B8D
:1008F00029853A854B855C8504C056954795379583
:1009000027958A95D2F76623B1F05095409530959A
:1009100021953F4F4F4F5F4F0EC020E030E040E049
:1009200050E009C02FEF3FEF4FEF5FE704C020E03A
:1009300030E040E050E8B901CA012C96E2E00C94A6
:100940000517A8E0B0E0E7EAF4E00C94E1167B01BB
:100950008C01611571058105910519F482E0898387
:1009600060C083E089838EE1C82ED12CDC82CB82EB
:10097000ED82FE820F831887C801B7010E941A0515
:10098000FC013197F7FF3BC0222733272E1B3F0B7B
:1009900057016801022E04C0D694C794B794A79457
:1009A0000A94D2F740E050E060E070E081E090E02F
:1009B000A0E0B0E004C0880F991FAA1FBB1F2A95B2
:1009C000D2F70197A109B1098E219F21A023B1235C
:1009D0000097A105B10521F041E050E060E070E032
:1009E0004A295B296C297D294D835E836F83788733
:1009F0008EE190E08E1B9F0B9C838B8312C03097FF
:100A000081F00E2E04C0EE0CFF1C001F111F0A9473
:100A1000D2F7ED82FE820F831887CE1ADF0ADC82BE
:100A2000CB821A82CE0101960E9469052896EAE0DF
:100A30000C94FD16EF92FF920F931F937B018C0194
:100A400080E0E81680E0F80681E0080780E01807FB
:100A500088F48FEFE816F1040105110531F028F054
:100A600088E090E0A0E0B0E017C080E090E0A0E077
:100A7000B0E012C080E0E81680E0F80680E00807E9
:100A800081E0180728F088E190E0A0E0B0E004C021
:100A900080E190E0A0E0B0E020E230E040E050E013
:100AA000281B390B4A0B5B0B04C016950795F7946E
:100AB000E7948A95D2F7F701E856FF4F8081281B0B
:100AC000310941095109C9011F910F91FF90EF9020
:100AD0000895DF92EF92FF920F931F93FC01E48041
:100AE000F58006811781D1808081823048F480E0D2
:100AF00090E0A0E1B0E0E82AF92A0A2B1B2BA5C060
:100B0000843009F49FC0823021F4EE24FF24870151
:100B100005C0E114F1040105110519F4E0E0F0E06D
:100B200096C0628173819FEF623879070CF05BC0D9
:100B300022E83FEF261B370B2A3131052CF020E04D
:100B400030E040E050E02AC0B801A701022E04C006
:100B500076956795579547950A94D2F781E090E08E
:100B6000A0E0B0E004C0880F991FAA1FBB1F2A9500
:100B7000D2F70197A109B1098E219F21A023B123AA
:100B80000097A105B10521F081E090E0A0E0B0E080
:100B90009A01AB01282B392B4A2B5B2BDA01C901B7
:100BA0008F779070A070B07080349105A105B10569
:100BB00039F427FF09C0205C3F4F4F4F5F4F04C0FF
:100BC000215C3F4F4F4F5F4FE0E0F0E02030A0E06E
:100BD0003A07A0E04A07A0E45A0710F0E1E0F0E08D
:100BE00079018A0127C06038710564F5FB01E1587D
:100BF000FF4FD801C7018F779070A070B07080341C
:100C00009105A105B10539F4E7FE0DC080E490E03F
:100C1000A0E0B0E004C08FE390E0A0E0B0E0E80E18
:100C2000F91E0A1F1B1F17FF05C016950795F7949D
:100C3000E794319687E016950795F794E7948A959F
:100C4000D1F705C0EE24FF248701EFEFF0E06E2F0F
:100C5000679566276795902F9F77D794DD24D79463
:100C60008E2F8695492F462B582F5D29B701CA0133
:100C70001F910F91FF90EF90DF900895FC01DB0131
:100C8000408151812281622F6F7770E0221F2227DD
:100C9000221F9381892F880F822B282F30E0991FE4
:100CA0009927991F11969C93119721153105A9F544
:100CB000411551056105710511F482E037C082E8E4
:100CC0009FEF13969C938E9312979A01AB0167E066
:100CD000220F331F441F551F6A95D1F783E08C9371
:100CE0000DC0220F331F441F551F12968D919C91EA
:100CF0001397019713969C938E931297203080E060
:100D0000380780E0480780E4580758F314962D937D
:100D10003D934D935C93179708952F3F310579F4D8
:100D2000411551056105710519F484E08C9308950E
:100D300064FF03C081E08C9312C01C9210C02F5737
:100D4000304013963C932E93129783E08C9387E068
:100D5000440F551F661F771F8A95D1F7706414964C
:100D60004D935D936D937C93179708951F93DC01CA
:100D7000FB019C91923008F447C08081823008F4D6
:100D800043C0943051F411961C91843099F58181BF
:100D9000682F70E0611B71093FC0843021F09230F0
:100DA00031F48230B9F18181882389F12DC0119607
:100DB0001C9111978230F1F081811817D9F41296A5
:100DC0002D913C911397828193818217930794F020
:100DD00028173907BCF014968D919D910D90BC9108
:100DE000A02D2481358146815781281739074A076C
:100DF0005B0718F4112341F00AC082179307A40778
:100E0000B50740F4112319F061E070E005C06FEF01
:100E10007FEF02C060E070E0CB011F910895DF9387
:100E2000CF9300D000D00F92CDB7DEB789836A830D
:100E30004B838981843008F0D5C08A81883008F0DE
:100E4000D1C08981282F30E03D832C838C819D8106
:100E50008130910509F443C02C813D812230310558
:100E60002CF48C819D81009771F0BCC02C813D8158
:100E70002230310509F45FC08C819D81833091055A
:100E800009F485C0AFC08B818823A9F4AAE3B0E040
:100E9000EAE3F0E08081482F8A81282F30E081E06A
:100EA00090E0022E02C0880F991F0A94E2F7809505
:100EB00084238C9397C0AAE3B0E0EAE3F0E080815A
:100EC000482F8A81282F30E081E090E0022E02C076
:100ED000880F991F0A94E2F7842B8C9383C08B812F
:100EE0008823A9F4A7E3B0E0E7E3F0E08081482F8E
:100EF0008A81282F30E081E090E0022E02C0880F26
:100F0000991F0A94E2F7809584238C936BC0A7E322
:100F1000B0E0E7E3F0E08081482F8A81282F30E0BD
:100F200081E090E0022E02C0880F991F0A94E2F738
:100F3000842B8C9357C08B818823A9F4A4E3B0E061
:100F4000E4E3F0E08081482F8A81282F30E081E0BF
:100F500090E0022E02C0880F991F0A94E2F7809554
:100F600084238C933FC0A4E3B0E0E4E3F0E080810D
:100F7000482F8A81282F30E081E090E0022E02C0C5
:100F8000880F991F0A94E2F7842B8C932BC08B81D6
:100F90008823A9F4A1E3B0E0E1E3F0E08081482FE9
:100FA0008A81282F30E081E090E0022E02C0880F75
:100FB000991F0A94E2F7809584238C9313C0A1E3D0
:100FC000B0E0E1E3F0E08081482F8A81282F30E013
:100FD00081E090E0022E02C0880F991F0A94E2F788
:100FE000842B8C930F900F900F900F900F90CF91B8
:100FF000DF910895DF93CF9300D000D00F92CDB74B
:10100000DEB789836A834B838981843008F0D5C039
:101010008A81883008F0D1C08981282F30E03D8353
:101020002C838C819D818130910509F443C02C81F2
:101030003D81223031052CF48C819D81009771F027
:10104000BCC02C813D812230310509F45FC08C8108
:101050009D818330910509F485C0AFC08B818823C1
:10106000A9F4ABE3B0E0EBE3F0E08081482F8A81A4
:10107000282F30E081E090E0022E02C0880F991FF7
:101080000A94E2F7809584238C9397C0ABE3B0E099
:10109000EBE3F0E08081482F8A81282F30E081E067
:1010A00090E0022E02C0880F991F0A94E2F7842B69
:1010B0008C9383C08B818823A9F4A8E3B0E0E8E394
:1010C000F0E08081482F8A81282F30E081E090E095
:1010D000022E02C0880F991F0A94E2F7809584239C
:1010E0008C936BC0A8E3B0E0E8E3F0E08081482F88
:1010F0008A81282F30E081E090E0022E02C0880F24
:10110000991F0A94E2F7842B8C9357C08B81882314
:10111000A9F4A5E3B0E0E5E3F0E08081482F8A81FF
:10112000282F30E081E090E0022E02C0880F991F46
:101130000A94E2F7809584238C933FC0A5E3B0E046
:10114000E5E3F0E08081482F8A81282F30E081E0BC
:1011500090E0022E02C0880F991F0A94E2F7842BB8
:101160008C932BC08B818823A9F4A2E3B0E0E2E347
:10117000F0E08081482F8A81282F30E081E090E0E4
:10118000022E02C0880F991F0A94E2F780958423EB
:101190008C9313C0A2E3B0E0E2E3F0E08081482F3B
:1011A0008A81282F30E081E090E0022E02C0880F73
:1011B000991F0A94E2F7842B8C930F900F900F9055
:1011C0000F900F90CF91DF910895DF93CF9300D0D0
:1011D00000D0CDB7DEB789836A838981843008F077
:1011E00072C08A81883008F06EC08981282F30E073
:1011F0003C832B838B819C818130910549F12B812C
:101200003C81223031052CF48B819C81009761F068
:101210005AC02B813C812230310571F18B819C8138
:1012200083309105E9F14FC0ABE3B0E0EBE3F0E0D0
:101230008081482F8A81282F30E081E090E0022EC3
:1012400002C0880F991F0A94E2F784278C933BC051
:10125000A8E3B0E0E8E3F0E08081482F8A81282FFE
:1012600030E081E090E0022E02C0880F991F0A94BE
:10127000E2F784278C9327C0A5E3B0E0E5E3F0E034
:101280008081482F8A81282F30E081E090E0022E73
:1012900002C0880F991F0A94E2F784278C9313C029
:1012A000A2E3B0E0E2E3F0E08081482F8A81282FBA
:1012B00030E081E090E0022E02C0880F991F0A946E
:1012C000E2F784278C930F900F900F900F90CF919F
:1012D000DF910895DF93CF9300D000D00F92CDB768
:1012E000DEB78A836B838FEF89838A81843008F02D
:1012F0006BC08B81883008F067C08A81282F30E06E
:101300003D832C834C815D814130510541F18C81BD
:101310009D818230910534F42C813D812115310568
:1013200061F052C04C815D814230510551F18C8198
:101330009D8183309105B9F147C0E9E3F0E08081F8
:10134000282F30E08B81882F90E0A90102C05595AD
:1013500047958A95E2F7CA018170898335C0E6E333
:10136000F0E08081282F30E08B81882F90E0A90168
:1013700002C0559547958A95E2F7CA018170898325
:1013800023C0E3E3F0E08081282F30E08B81882FB9
:1013900090E0A90102C0559547958A95E2F7CA01E8
:1013A0008170898311C0E0E3F0E08081282F30E074
:1013B0008B81882F90E0A90102C0559547958A95A9
:1013C000E2F7CA018170898389810F900F900F9095
:1013D0000F900F90CF91DF910895DF93CF9300D0BE
:1013E00000D0CDB7DEB789836A838981282F30E0AA
:1013F0003C832B838B819C8181309105D1F02B81A3
:101400003C81223031052CF48B819C81009761F066
:101410001EC02B813C812230310581F08B819C8163
:101420008330910581F013C0EAE3F0E08A81808384
:101430000EC0E7E3F0E08A81808309C0E4E3F0E0D6
:101440008A81808304C0E1E3F0E08A8180830F9089
:101450000F900F900F90CF91DF910895DF93CF936E
:1014600000D000D0CDB7DEB789836A838981282F69
:1014700030E03C832B838B819C8181309105D1F0BE
:101480002B813C81223031052CF48B819C8100978B
:1014900061F01EC02B813C812230310581F08B81AF
:1014A0009C818330910581F013C0EBE3F0E08A81E9
:1014B00080830EC0E8E3F0E08A81808309C0E5E321
:1014C000F0E08A81808304C0E2E3F0E08A818083D7
:1014D0000F900F900F900F90CF91DF910895DF93B1
:1014E000CF93CDB7DEB72F970FB6F894DEBF0FBE00
:1014F000CDBF89838981282F30E03F872E878E8555
:101500009F858130910539F1EE85FF85E230F10547
:1015100034F42E853F852115310561F04EC08E854E
:101520009F858230910541F1EE85FF85E330F1051D
:10153000A1F143C02BE330E03D872C87EBE3F0E0E3
:1015400080811B86882311F431E03B872B85EC8555
:10155000FD85208332C088E390E09A878987E8E39D
:10156000F0E080811886882311F491E0988728851F
:10157000E985FA85208321C085E390E09F838E83EF
:10158000E2E3F0E080811D82882311F491E09D83E5
:101590002D81EE81FF81208310C082E390E09C8347
:1015A0008B83E2E3F0E080811A82882311F491E0DA
:1015B0009A832A81EB81FC8120832F960FB6F894C1
:1015C000DEBF0FBECDBFCF91DF910895DF93CF93E4
:1015D00000D000D0CDB7DEB78A838A81282F30E0D3
:1015E0003C832B838B819C8181309105D1F02B81B1
:1015F0003C81223031052CF48B819C81009761F075
:101600001EC02B813C812230310581F08B819C8171
:101610008330910581F013C0E9E3F0E08081898394
:101620000EC0E6E3F0E08081898309C0E3E3F0E0E7
:101630008081898304C0E0E3F0E08081898389812F
:101640000F900F900F900F90CF91DF910895DF933F
:10165000CF9300D000D00F92CDB7DEB789836A83D5
:101660004B838981282F30E03D832C838C819D81A1
:101670008130910509F440C02C813D812230310533
:101680002CF48C819D81009771F0B0C02C813D813C
:101690002230310509F459C08C819D818330910538
:1016A00009F47CC0A3C08A81882399F4ABE3B0E03D
:1016B000EBE3F0E08081807F8C938B818F708B8354
:1016C000ABE3B0E0EBE3F0E090818B81892B8C936E
:1016D0008DC0ABE3B0E0EBE3F0E080818F708C93E2
:1016E0008B81807F8B83ABE3B0E0EBE3F0E0908114
:1016F0008B81892B8C937AC08A81882399F4A8E303
:10170000B0E0E8E3F0E08081807F8C938B818F7084
:101710008B83A8E3B0E0E8E3F0E090818B81892B34
:101720008C9364C0A8E3B0E0E8E3F0E080818F70C0
:101730008C938B81807F8B83A8E3B0E0E8E3F0E0BB
:1017400090818B81892B8C9351C08A81882399F455
:10175000A5E3B0E0E5E3F0E08081807F8C938B81AE
:101760008F708B83A5E3B0E0E5E3F0E090818B819F
:10177000892B8C933BC0A5E3B0E0E5E3F0E08081EA
:101780008F708C938B81807F8B83A5E3B0E0E5E342
:10179000F0E090818B81892B8C9328C08A818823EB
:1017A00099F4A2E3B0E0E2E3F0E08081807F8C93E3
:1017B0008B818F708B83A2E3B0E0E2E3F0E0908155
:1017C0008B81892B8C9312C0A2E3B0E0E2E3F0E0BE
:1017D00080818F708C938B81807F8B83A2E3B0E0BC
:1017E000E2E3F0E090818B81892B8C930F900F9036
:1017F0000F900F900F90CF91DF910895DF93CF93CB
:101800000F92CDB7DEB7E7E2F0E08081E7E2F0E0EB
:101810001082E6E2F0E01082A7E2B0E0E7E2F0E05A
:101820008081806C8C93A6E2B0E0E6E2F0E08081FB
:1018300087608C93A6E2B0E0E6E2F0E08081806809
:101840008C93A6E2B0E0E6E2F0E0808180648C93C5
:101850000F90CF91DF910895DF93CF930F92CDB783
:10186000DEB78983A7E2B0E0E7E2F0E08081807F25
:101870008C93A7E2B0E0E7E2F0E090818981892BC8
:101880008C93A6E2B0E0E6E2F0E0808180648C9385
:10189000E6E2F0E080818295869586958370882FB8
:1018A00090E081709070882399F7E4E2F0E0808105
:1018B00091810F90CF91DF910895DF93CF93CDB7B2
:1018C000DEB76D970FB6F894DEBF0FBECDBF8D8F1C
:1018D00081E060E040E00E94FA0781E061E040E0E2
:1018E0000E94FA0781E061E04D8D0E94270B81E0A4
:1018F00062E041E00E94FA0780E090E0A0E0B0E4FE
:10190000898F9A8FAB8FBC8F698D7A8D8B8D9C8DD3
:1019100020E030E04AEF54E40E941702DC01CB01E2
:101920008D8B9E8BAF8BB88F6D897E898F89988DBB
:1019300020E030E040E85FE30E941D0488232CF49F
:1019400081E090E09C8B8B8B3FC06D897E898F8975
:10195000988D20E03FEF4FE757E40E94BD03181633
:101960004CF5698D7A8D8B8D9C8D20E030E040E2C6
:1019700051E40E941702DC01CB01BC01CD010E94A1
:101980004100DC01CB019C8B8B8B0FC088EC90E07D
:101990009A8B898B89899A890197F1F79A8B898B20
:1019A0008B899C8901979C8B8B8B8B899C89009759
:1019B00069F714C06D897E898F89988D0E944100D6
:1019C000DC01CB019C8B8B8B8B899C89988B8F87BF
:1019D0008F8598890197F1F7988B8F8781E062E076
:1019E00040E00E94FA078D8D8295807F8D8F81E087
:1019F00061E04D8D0E94270B81E062E041E00E9492
:101A0000FA0780E090E0A0E0B0E48B879C87AD8788
:101A1000BE876B857C858D859E8520E030E04AEF12
:101A200054E40E941702DC01CB018F839887A987B9
:101A3000BA876F81788589859A8520E030E040E813
:101A40005FE30E941D0488232CF481E090E09E83D4
:101A50008D833FC06F81788589859A8520E03FEF2F
:101A60004FE757E40E94BD0318164CF56B857C8543
:101A70008D859E8520E030E040E251E40E9417020F
:101A8000DC01CB01BC01CD010E944100DC01CB0196
:101A90009E838D830FC088EC90E09C838B838B8129
:101AA0009C810197F1F79C838B838D819E810197A7
:101AB0009E838D838D819E81009769F714C06F810D
:101AC000788589859A850E944100DC01CB019E833F
:101AD0008D838D819E819A83898389819A810197E3
:101AE000F1F79A83898381E062E040E00E94FA077F
:101AF0006D960FB6F894DEBF0FBECDBFCF91DF91CC
:101B000008950F931F93DF93CF93CDB7DEB7C455DE
:101B1000D0400FB6F894DEBF0FBECDBF81E060E0CD
:101B200041E00E940F0781E061E041E00E940F0761
:101B300081E062E041E00E940F0781E064E041E063
:101B40000E940F0781E065E041E00E940F0781E0FD
:101B500066E041E00E940F0781E067E041E00E94FB
:101B60000F07FE01EF5AFF4F80E090E0A0EFB1E4D5
:101B700080839183A283B3838E01035B1F4FFE0199
:101B8000EF5AFF4F608171818281938120E030E0C4
:101B90004AEF54E40E941702DC01CB01F801808374
:101BA0009183A283B383FE01E35BFF4F6081718168
:101BB0008281938120E030E040E85FE30E941D04D1
:101BC000882344F4FE01E55BFF4F81E090E09183C0
:101BD000808364C0FE01E35BFF4F6081718182817D
:101BE000938120E03FEF4FE757E40E94BD031816B2
:101BF0000CF043C0FE01EF5AFF4F6081718182817A
:101C0000938120E030E040E251E40E941702DC01C1
:101C1000CB018E01055B1F4FBC01CD010E9441002D
:101C2000DC01CB01F801918380831FC0FE01E75BDB
:101C3000FF4F88EC90E091838083FE01E75BFF4FCC
:101C4000808191810197F1F7FE01E75BFF4F91835E
:101C50008083DE01A55BBF4FFE01E55BFF4F808106
:101C60009181019711969C938E93FE01E55BFF4F46
:101C7000808191810097D1F627C08E01055B1F4FAF
:101C8000FE01E35BFF4F60817181828193810E943D
:101C90004100DC01CB01F80191838083DE01A95B67
:101CA000BF4FFE01E55BFF4F808191818D939C9337
:101CB000FE01E95BFF4F808191810197F1F7FE0101
:101CC000E95BFF4F9183808382E00E945D0CFE01FF
:101CD000ED5BFF4F80E090E0A0E2B1E48083918370
:101CE000A283B3838E01015C1F4FFE01ED5BFF4FAA
:101CF000608171818281938120E030E04AEF54E479
:101D00000E941702DC01CB01F80180839183A2833A
:101D1000B383FE01FF96608171818281938120E00F
:101D200030E040E85FE30E941D0488232CF481E04A
:101D300090E09EAF8DAF46C0FE01FF96608171813D
:101D40008281938120E03FEF4FE757E40E94BD037B
:101D5000181664F5FE01ED5BFF4F60817181828191
:101D6000938120E030E040E251E40E941702DC0160
:101D7000CB01BC01CD010E944100DC01CB019EAF33
:101D80008DAF0FC088EC90E09CAF8BAF8BAD9CAD5E
:101D90000197F1F79CAF8BAF8DAD9EAD01979EAFD4
:101DA0008DAF8DAD9EAD009769F716C0FE01FF9611
:101DB00060817181828193810E944100DC01CB01AD
:101DC0009EAF8DAF8DAD9EAD9AAF89AF89AD9AAD07
:101DD0000197F1F79AAF89AF88E20E945D0C80E02D
:101DE00090E0A0E0B0E48DAB9EABAFABB8AF6DA917
:101DF0007EA98FA998AD20E030E04AEF54E40E941C
:101E00001702DC01CB0189AB9AABABABBCAB69A9C8
:101E10007AA98BA99CA920E030E040E85FE30E940A
:101E20001D0488232CF481E090E098AB8FA73FC07D
:101E300069A97AA98BA99CA920E03FEF4FE757E455
:101E40000E94BD0318164CF56DA97EA98FA998AD07
:101E500020E030E040E251E40E941702DC01CB01B7
:101E6000BC01CD010E944100DC01CB0198AB8FA7E2
:101E70000FC088EC90E09EA78DA78DA59EA5019729
:101E8000F1F79EA78DA78FA598A9019798AB8FA76B
:101E90008FA598A9009769F714C069A97AA98BA999
:101EA0009CA90E944100DC01CB0198AB8FA78FA5B4
:101EB00098A99CA78BA78BA59CA50197F1F79CA738
:101EC0008BA78FE00E945D0C80E090E0A0E0B0E482
:101ED0008FA398A7A9A7BAA76FA178A589A59AA546
:101EE00020E030E04AEF54E40E941702DC01CB010D
:101EF0008BA39CA3ADA3BEA36BA17CA18DA19EA12E
:101F000020E030E040E85FE30E941D0488232CF4C9
:101F100081E090E09AA389A33FC06BA17CA18DA131
:101F20009EA120E03FEF4FE757E40E94BD03181643
:101F30004CF56FA178A589A59AA520E030E040E294
:101F400051E40E941702DC01CB01BC01CD010E94CB
:101F50004100DC01CB019AA389A30FC088EC90E07B
:101F600098A38F8F8F8D98A10197F1F798A38F8FEA
:101F700089A19AA101979AA389A389A19AA10097FF
:101F800069F714C06BA17CA18DA19EA10E944100A4
:101F9000DC01CB019AA389A389A19AA19E8F8D8F81
:101FA0008D8D9E8D0197F1F79E8F8D8F86E00E941B
:101FB0005D0C80E090E0A0E0B0E4898F9A8FAB8F59
:101FC000BC8F698D7A8D8B8D9C8D20E030E04AEF3F
:101FD00054E40E941702DC01CB018D8B9E8BAF8BEA
:101FE000B88F6D897E898F89988D20E030E040E838
:101FF0005FE30E941D0488232CF481E090E09C8B19
:102000008B8B3FC06D897E898F89988D20E03FEF53
:102010004FE757E40E94BD0318164CF5698D7A8D81
:102020008B8D9C8D20E030E040E251E40E9417024D
:10203000DC01CB01BC01CD010E944100DC01CB01E0
:102040009C8B8B8B0FC088EC90E09A8B898B898955
:102050009A890197F1F79A8B898B8B899C890197D3
:102060009C8B8B8B8B899C89009769F714C06D8939
:102070007E898F89988D0E944100DC01CB019C8B69
:102080008B8B8B899C89988B8F878F8598890197FB
:10209000F1F7988B8F8781E00E945D0C80E090E0E3
:1020A000A0E4B0E48B879C87AD87BE876B857C8579
:1020B0008D859E8520E030E04AEF54E40E941702AF
:1020C000DC01CB018F839887A987BA876F817885D8
:1020D00089859A8520E030E040E85FE30E941D0496
:1020E00088232CF481E090E09E838D833FC06F8134
:1020F000788589859A8520E03FEF4FE757E40E9475
:10210000BD0318164CF56B857C858D859E8520E07A
:1021100030E040E251E40E941702DC01CB01BC0137
:10212000CD010E944100DC01CB019E838D830FC055
:1021300088EC90E09C838B838B819C810197F1F7E5
:102140009C838B838D819E8101979E838D838D815E
:102150009E81009769F714C06F81788589859A857B
:102160000E944100DC01CB019E838D838D819E8185
:102170009A83898389819A810197F1F79A83898368
:10218000CC5ADF4F0FB6F894DEBF0FBECDBFCF9154
:10219000DF911F910F910895DF93CF93CDB7DEB7F5
:1021A000E9970FB6F894DEBF0FBECDBF89AF81E0CF
:1021B00060E041E00E94FA0781E061E040E00E94B7
:1021C000FA0781E061E049AD0E94270B80E090E0D2
:1021D000A0E0B0E48DAB9EABAFABB8AF6DA97EA96C
:1021E0008FA998AD20E030E04AEF54E40E94170236
:1021F000DC01CB0189AB9AABABABBCAB69A97AA9CB
:102200008BA99CA920E030E040E85FE30E941D0418
:1022100088232CF481E090E098AB8FA73FC069A998
:102220007AA98BA99CA920E03FEF4FE757E40E94D1
:10223000BD0318164CF56DA97EA98FA998AD20E0B5
:1022400030E040E251E40E941702DC01CB01BC0106
:10225000CD010E944100DC01CB0198AB8FA70FC0DC
:1022600088EC90E09EA78DA78DA59EA50197F1F71C
:102270009EA78DA78FA598A9019798AB8FA78FA52B
:1022800098A9009769F714C069A97AA98BA99CA994
:102290000E944100DC01CB0198AB8FA78FA598A9C4
:1022A0009CA78BA78BA59CA50197F1F79CA78BA753
:1022B00081E062E041E00E94FA0780E090E0A0E067
:1022C000B0E48FA398A7A9A7BAA76FA178A589A5FD
:1022D0009AA520E030E04AEF54E40E941702DC01A6
:1022E000CB018BA39CA3ADA3BEA36BA17CA18DA1AD
:1022F0009EA120E030E040E85FE30E941D048823B7
:102300002CF481E090E09AA389A33FC06BA17CA14B
:102310008DA19EA120E03FEF4FE757E40E94BD034F
:1023200018164CF56FA178A589A59AA520E030E094
:1023300040E251E40E941702DC01CB01BC01CD0157
:102340000E944100DC01CB019AA389A30FC088EC55
:1023500090E098A38F8F8F8D98A10197F1F798A3A4
:102360008F8F89A19AA101979AA389A389A19AA184
:10237000009769F714C06BA17CA18DA19EA10E945A
:102380004100DC01CB019AA389A389A19AA19E8F68
:102390008D8F8D8D9E8D0197F1F79E8F8D8F81E0B2
:1023A00062E040E00E94FA0789AD8295807F89AFA4
:1023B00081E061E049AD0E94270B80E090E0A0E061
:1023C000B0E4898F9A8FAB8FBC8F698D7A8D8B8D9E
:1023D0009C8D20E030E04AEF54E40E941702DC01BB
:1023E000CB018D8B9E8BAF8BB88F6D897E898F894A
:1023F000988D20E030E040E85FE30E941D048823D0
:102400002CF481E090E09C8B8B8B3FC06D897E89A2
:102410008F89988D20E03FEF4FE757E40E94BD037E
:1024200018164CF5698D7A8D8B8D9C8D20E030E0EF
:1024300040E251E40E941702DC01CB01BC01CD0156
:102440000E944100DC01CB019C8B8B8B0FC088EC80
:1024500090E09A8B898B89899A890197F1F79A8BF9
:10246000898B8B899C8901979C8B8B8B8B899C8911
:10247000009769F714C06D897E898F89988D0E94B5
:102480004100DC01CB019C8B8B8B8B899C89988BC9
:102490008F878F8598890197F1F7988B8F8781E0D7
:1024A00062E041E00E94FA0780E090E0A0E0B0E442
:1024B0008B879C87AD87BE876B857C858D859E8548
:1024C00020E030E04AEF54E40E941702DC01CB0127
:1024D0008F839887A987BA876F81788589859A8540
:1024E00020E030E040E85FE30E941D0488232CF4E4
:1024F00081E090E09E838D833FC06F8178858985E0
:102500009A8520E03FEF4FE757E40E94BD0318167D
:102510004CF56B857C858D859E8520E030E040E222
:1025200051E40E941702DC01CB01BC01CD010E94E5
:102530004100DC01CB019E838D830FC088EC90E0CD
:102540009C838B838B819C810197F1F79C838B8388
:102550008D819E8101979E838D838D819E810097C1
:1025600069F714C06F81788589859A850E9441003A
:10257000DC01CB019E838D838D819E819A8389832B
:1025800089819A810197F1F79A83898381E062E0DA
:1025900040E00E94FA07E9960FB6F894DEBF0FBE3E
:1025A000CDBFCF91DF9108950F931F93DF93CF930A
:1025B000CDB7DEB760970FB6F894DEBF0FBECDBFC4
:1025C0006D877E878F87988B1A822DC08A81082F0E
:1025D00010E08D859E85AF85B8892AE030E040E027
:1025E00050E0BC01CD010E94B716DC01CB01282FC1
:1025F000CE010396FC01E00FF11F20838D859E859F
:10260000AF85B8892AE030E040E050E0BC01CD0160
:102610000E94B716DA01C9018D879E87AF87B88BF4
:102620008A818F5F8A838D859E85AF85B889009763
:10263000A105B10559F68A818150898311C089812C
:10264000282F332727FD3095CE010396FC01E20F9A
:10265000F31F8081805D0E94CC1089818150898325
:102660008981882364F760960FB6F894DEBF0FBEA9
:10267000CDBFCF91DF911F910F910895DF93CF933D
:1026800000D0CDB7DEB789836A838981882329F496
:102690008A8180580E945D0C04C08A8181540E9406
:1026A0005D0C0F900F90CF91DF910895DF93CF9342
:1026B00000D00F92CDB7DEB79B838A8319820EC0FC
:1026C0008981282F30E08A819B81FC01E20FF31F72
:1026D00080810E94CC1089818F5F89838981282F16
:1026E00030E08A819B81FC01E20FF31F8081882307
:1026F00039F70F900F900F90CF91DF910895DF93EE
:10270000CF93CDB7DEB783E060E041E00E940F07D2
:1027100083E061E041E00E940F0783E062E041E076
:102720000E940F0783E063E041E00E940F0783E00F
:1027300064E041E00E940F0783E065E041E00E9411
:102740000F0783E066E041E00E940F07CF91DF9121
:102750000895DF93CF9300D00F92CDB7DEB7898372
:102760008981282F30E03B832A838A819B818430B2
:10277000910509F4D7C02A813B8125303105ECF45D
:102780008A819B818130910509F460C02A813B8157
:10279000223031052CF48A819B81009799F199C1EF
:1027A0002A813B812230310509F474C08A819B81E2
:1027B0008330910509F492C08CC12A813B81273076
:1027C000310509F41BC18A819B81883091056CF425
:1027D0002A813B812530310509F4C8C08A819B815B
:1027E0008630910509F4E6C074C12A813B81283006
:1027F000310509F427C18A819B818930910509F44B
:1028000045C167C183E060E041E00E94FA0783E0D0
:1028100061E041E00E94FA0783E062E041E00E944B
:10282000FA0783E063E041E00E94FA0783E064E096
:1028300041E00E94FA0783E065E041E00E94FA0768
:1028400083E066E040E00E94FA0743C183E060E075
:1028500040E00E94FA0783E061E041E00E94FA074D
:1028600083E062E041E00E94FA0783E063E040E039
:102870000E94FA0783E064E040E00E94FA0783E0E8
:1028800065E040E00E94FA0783E066E040E00E94D5
:10289000FA071FC183E060E041E00E94FA0783E08D
:1028A00061E041E00E94FA0783E062E040E00E94BC
:1028B000FA0783E063E041E00E94FA0783E064E006
:1028C00041E00E94FA0783E065E040E00E94FA07D9
:1028D00083E066E041E00E94FA07FBC083E060E02D
:1028E00041E00E94FA0783E061E041E00E94FA07BC
:1028F00083E062E041E00E94FA0783E063E041E0A8
:102900000E94FA0783E064E040E00E94FA0783E057
:1029100065E040E00E94FA0783E066E041E00E9443
:10292000FA07D7C083E060E040E00E94FA0783E046
:1029300061E041E00E94FA0783E062E041E00E942A
:10294000FA0783E063E040E00E94FA0783E064E076
:1029500040E00E94FA0783E065E041E00E94FA0748
:1029600083E066E041E00E94FA07B3C083E060E0E4
:1029700041E00E94FA0783E061E040E00E94FA072C
:1029800083E062E041E00E94FA0783E063E041E017
:102990000E94FA0783E064E040E00E94FA0783E0C7
:1029A00065E041E00E94FA0783E066E041E00E94B2
:1029B000FA078FC083E060E041E00E94FA0783E0FD
:1029C00061E040E00E94FA0783E062E041E00E949B
:1029D000FA0783E063E041E00E94FA0783E064E0E5
:1029E00041E00E94FA0783E065E041E00E94FA07B7
:1029F00083E066E041E00E94FA076BC083E060E09C
:102A000041E00E94FA0783E061E041E00E94FA079A
:102A100083E062E041E00E94FA0783E063E040E087
:102A20000E94FA0783E064E040E00E94FA0783E036
:102A300065E040E00E94FA0783E066E040E00E9423
:102A4000FA0747C083E060E041E00E94FA0783E0B4
:102A500061E041E00E94FA0783E062E041E00E9409
:102A6000FA0783E063E041E00E94FA0783E064E054
:102A700041E00E94FA0783E065E041E00E94FA0726
:102A800083E066E041E00E94FA0723C083E060E053
:102A900041E00E94FA0783E061E041E00E94FA070A
:102AA00083E062E041E00E94FA0783E063E041E0F6
:102AB0000E94FA0783E064E040E00E94FA0783E0A6
:102AC00065E041E00E94FA0783E066E041E00E9491
:102AD000FA070F900F900F90CF91DF910895DF9339
:102AE000CF93CDB7DEB7A0970FB6F894DEBF0FBE79
:102AF000CDBF0E94FE0B0E94810D80E690E00E94F7
:102B0000561381E061E00E943E1381E790E00E944D
:102B1000561380E090E8ABEBB4E4898F9A8FAB8FCB
:102B2000BC8F698D7A8D8B8D9C8D20E030E04AEFD3
:102B300054E40E941702DC01CB018D8B9E8BAF8B7E
:102B4000B88F6D897E898F89988D20E030E040E8CC
:102B50005FE30E941D0488232CF481E090E09C8BAD
:102B60008B8B3FC06D897E898F89988D20E03FEFE8
:102B70004FE757E40E94BD0318164CF5698D7A8D16
:102B80008B8D9C8D20E030E040E251E40E941702E2
:102B9000DC01CB01BC01CD010E944100DC01CB0175
:102BA0009C8B8B8B0FC088EC90E09A8B898B8989EA
:102BB0009A890197F1F79A8B898B8B899C89019768
:102BC0009C8B8B8B8B899C89009769F714C06D89CE
:102BD0007E898F89988D0E944100DC01CB019C8BFE
:102BE0008B8B8B899C89988B8F878F859889019790
:102BF000F1F7988B8F870E94810D81E890E00E9409
:102C0000561380E06EE00E943E1380E00E942C0C80
:102C100098A38F8F8F8D98A1CC01A0E0B0E0BC016C
:102C2000CD010E94A104DC01CB01BC01CD012AE051
:102C300037ED43E250E40E941702DC01CB01BC01F6
:102C4000CD0120E030EC4FE754E40E941103DC0199
:102C5000CB01BC01CD0120E030E048EC52E40E9401
:102C60001702DC01CB01BC01CD010E944100DC0157
:102C7000CB019E8F8D8F8D8D9E8DCC01A0E0B0E01D
:102C8000BC01CD010E94D41280E090E0A6E9B3E43B
:102C90008B879C87AD87BE876B857C858D859E8560
:102CA00020E030E04AEF54E40E941702DC01CB013F
:102CB0008F839887A987BA876F81788589859A8558
:102CC00020E030E040E85FE30E941D0488232CF4FC
:102CD00081E090E09E838D833FC06F8178858985F8
:102CE0009A8520E03FEF4FE757E40E94BD03181696
:102CF0004CF56B857C858D859E8520E030E040E23B
:102D000051E40E941702DC01CB01BC01CD010E94FD
:102D10004100DC01CB019E838D830FC088EC90E0E5
:102D20009C838B838B819C810197F1F79C838B83A0
:102D30008D819E8101979E838D838D819E810097D9
:102D400069F75FCF6F81788589859A850E944100F8
:102D5000DC01CB019E838D838D819E819A83898343
:102D600089819A810197F1F79A8389834ACFA1E2F9
:102D70001A2EAA1BBB1BFD010DC0AA1FBB1FEE1FF5
:102D8000FF1FA217B307E407F50720F0A21BB30B40
:102D9000E40BF50B661F771F881F991F1A9469F7BC
:102DA00060957095809590959B01AC01BD01CF0118
:102DB00008952F923F924F925F926F927F928F92DF
:102DC0009F92AF92BF92CF92DF92EF92FF920F93BA
:102DD0001F93CF93DF93CDB7DEB7CA1BDB0B0FB6C4
:102DE000F894DEBF0FBECDBF09942A883988488881
:102DF0005F846E847D848C849B84AA84B984C88417
:102E0000DF80EE80FD800C811B81AA81B981CE0F0D
:102E1000D11D0FB6F894DEBF0FBECDBFED010895F2
:042E2000F894FFCF54
:102E24007468616E6B7320536563746F72204235EE
:102E340000616E6420454E472E4F6D61722E2E2E1A
:102E44000054656D7065726174757265203A200076
:102E5400000000000000000000010202030303035D
:102E64000404040404040404050505050505050516
:102E740005050505050505050606060606060606F6
:102E840006060606060606060606060606060606DE
:102E940006060606060606060707070707070707C6
:102EA40007070707070707070707070707070707AE
:102EB400070707070707070707070707070707079E
:102EC400070707070707070707070707070707078E
:102ED4000707070707070707080808080808080876
:102EE400080808080808080808080808080808085E
:102EF400080808080808080808080808080808084E
:102F0400080808080808080808080808080808083D
:102F1400080808080808080808080808080808082D
:102F2400080808080808080808080808080808081D
:102F3400080808080808080808080808080808080D
:102F440008080808080808080808080808080808FD
:082F5400080808080808080835
:00000001FF
